:020000040000FA
:100000000C945D000C9485000C9485000C94850084
:100010000C9485000C9485000C9485000C9485004C
:100020000C9485000C9485000C9485000C9485003C
:100030000C9485000C9485000C9485000C9485002C
:100040000C940A030C9485000C9485000C94850094
:100050000C9485000C9485000C9485000C9485000C
:100060000C9485000C9485000000000024002700FB
:100070002A0000000000250028002B0004040404CE
:100080000404040402020202020203030303030342
:10009000010204081020408001020408102001021F
:1000A00004081020000000080002010000030407FB
:1000B0000000000000000000360411241FBECFEF36
:1000C000D8E0DEBFCDBF11E0A0E0B1E0E8E6F9E0A6
:1000D00002C005900D92AA38B107D9F721E0AAE82D
:1000E000B1E001C01D92AB3AB207E1F710E0CDE5F7
:1000F000D0E004C02197FE010E94AC04CC35D107AA
:10010000C9F70E9454030C94B2040C94000090E0D0
:10011000FC01EC55FF4F2491FC01E057FF4F349157
:10012000FC01E458FF4FE491EE23C9F0222339F09B
:10013000233001F1A8F4213019F1223029F1F0E047
:10014000EE0FFF1FEE58FF4FA591B4918FB7F894B3
:10015000EC91611126C030953E233C938FBF0895EA
:100160002730A9F02830C9F0243049F78091800069
:100170008F7D03C0809180008F7780938000DFCFD8
:1001800084B58F7784BDDBCF84B58F7DFBCF809125
:10019000B0008F778093B000D2CF8091B0008F7D78
:1001A000F9CF3E2BDACFCF93DF9390E0FC01E057FD
:1001B000FF4F249184589F4FFC0184918823D1F0F4
:1001C00090E0880F991FFC01E859FF4FA591B49169
:1001D000FC01EE58FF4FC591D49161110EC09FB73D
:1001E000F8948C91E22FE0958E238C932881E22362
:1001F000E8839FBFDF91CF9108958FB7F894EC917A
:10020000E22BEC938FBFF6CF3FB7F89480918F012C
:1002100090919001A0919101B091920126B5A89B77
:1002200005C02F3F19F00196A11DB11D3FBFBA2F88
:10023000A92F982F8827BC01CD01620F711D811D48
:10024000911D42E0660F771F881F991F4A95D1F7CD
:100250000895AF92BF92CF92DF92EF92FF920F93E9
:100260001F93CF93DF936C017B018B01040F151F4C
:10027000EB015E01AE18BF08C017D10759F06991B4
:10028000D601ED91FC910190F081E02DC601099518
:10029000892B79F7C501DF91CF911F910F91FF90C5
:1002A000EF90DF90CF90BF90AF900895089590E0C9
:1002B00080E008958F929F92AF92BF920F931F9309
:1002C000CF93DF93CDB7DEB7A1970FB6F894DEBF1B
:1002D0000FBECDBF19A2423008F44AE08E010F5D77
:1002E0001F4F842E912CB12CA12CA50194010E94AA
:1002F0007404E62FB901CA01EA3044F5E05DD80183
:10030000EE938D01232B242B252B79F790E080E0B1
:10031000109769F0FD0101900020E9F73197AF01D6
:100320004A1B5B0BBD0183E991E00E942901A19664
:100330000FB6F894DEBF0FBECDBFDF91CF911F91F6
:100340000F91BF90AF909F908F900895E95CD7CFA9
:10035000FC0101900020E9F73197AF01481B590BD0
:10036000BC0183E991E00C942901CF93DF93EC0168
:1003700060E08E810E94870061E08E810E9487008C
:1003800060E08E810E9487008BE891E00197F1F791
:10039000DF91CF910895CF92DF92EF92FF920F936A
:1003A0001F93CF93DF936C017C0187E0E80EF11C73
:1003B000D0E0C0E0062F10E0B8010C2E02C0759509
:1003C00067950A94E2F76170F70181917F010E94BD
:1003D00087002196C430D10579F7C601DF91CF910E
:1003E0001F910F91FF90EF90DF90CF900C94B5018B
:1003F000CF92DF92EF92FF920F931F93CF93DF93F1
:10040000EC01F62E642F8C810E9487008D818F3F36
:1004100019F060E00E9487000F2D10E08F8584FFA7
:1004200025C06E0187E0C80ED11CF12CE12CB8016B
:100430000E2C02C0759567950A94E2F76170F6017B
:1004400081916F010E948700FFEFEF1AFF0A88E099
:10045000E816F10461F7CE01DF91CF911F910F9162
:10046000FF90EF90DF90CF900C94B501B80184E03D
:10047000759567958A95E1F7CE010E94CB016F2DA6
:10048000CE01DF91CF911F910F91FF90EF90DF9000
:10049000CF900C94CB0140E0682F83E991E00C945D
:1004A000F801CF93DF93613029F09091A201986019
:1004B0009093A2016093A6011092A70190E49093FB
:1004C000A8018093A901805C8093AA0161E08091DA
:1004D00097010E94D300809198018F3F19F061E04D
:1004E0000E94D30061E0809199010E94D300C3E98A
:1004F000D1E09E01235931408091A20184FD0BC0BF
:1005000084E090E021962817390744F461E08E8159
:100510000E94D300EECF88E090E0F4CF8BE39DE023
:100520000197F1F760E0809197010E94870060E0F9
:10053000809199010E948700809198018F3F19F066
:1005400060E00E9487008091A20184FD39C063E0D1
:1005500083E991E00E94CB01CBE4D6E4CE01019780
:10056000F1F763E083E991E00E94CB012197F1F775
:1005700063E083E991E00E94CB0183E592E001977B
:10058000F1F762E083E991E00E94CB018091A20142
:1005900080620E944B0284E08093A3018CE00E9461
:1005A0004B0281E00E944B028BE39FE10197F1F740
:1005B00082E08093A40186E0DF91CF910C944B02FE
:1005C00080620E944B028BE496E40197F1F78091E0
:1005D000A20180620E944B0283E592E00197F1F74D
:1005E0008091A20180620E944B02D0CF9091A6011F
:1005F000891710F08FEF890FE82FF0E0ED56FE4FCE
:10060000848980680C944B0241E00E94F80181E0EB
:1006100090E008951F920F920FB60F9211242F931E
:100620003F938F939F93AF93BF9380918B01909152
:100630008C01A0918D01B0918E0130918A0123E04F
:10064000230F2D3758F50196A11DB11D20938A0166
:1006500080938B0190938C01A0938D01B0938E01B8
:1006600080918F0190919001A0919101B0919201A0
:100670000196A11DB11D80938F0190939001A093CD
:100680009101B0939201BF91AF919F918F913F9152
:100690002F910F900FBE0F901F90189526E8230FF3
:1006A0000296A11DB11DD2CF789484B5826084BD1D
:1006B00084B5816084BD85B5826085BD85B5816066
:1006C00085BD80916E00816080936E0010928100E4
:1006D000809181008260809381008091810081609F
:1006E0008093810080918000816080938000809160
:1006F000B10084608093B1008091B00081608093EC
:10070000B00080917A00846080937A0080917A00B2
:10071000826080937A0080917A00816080937A0071
:1007200080917A00806880937A001092C10060E026
:100730008EE00E94D30061E087E00E94D30064E075
:1007400084E10E94510280E00E94F6028CE091E078
:100750000E94A80181E00E94F60283E291E00E94DB
:10076000A8010E9404014B015C0124ECC22E29E087
:10077000D22EE12CF12C0E940401681979098A0912
:100780009B09683E734081059105A8F321E0C21AD8
:10079000D108E108F10888EE880E83E0981EA11CBC
:1007A000B11CC114D104E104F10429F780E4782ECE
:1007B0009BEF892E93E0992EA12CB12CC0E0D0E0C4
:1007C00070927C0080917A00806480937A0080919E
:1007D0007A0086FDFCCFA0917800B091790024E6E4
:1007E00030E00E94A504A50194010E94550469010E
:1007F0007A01890182E00E94F60285E491E00E947C
:10080000A8014AE0C701B601F7FE0EC041E06DE263
:1008100083E991E00E94F80166277727CB016C19E4
:100820007D098E099F094AE00E945A018FE491E0F8
:100830000E94A80183E00E31110584F40E94F602A3
:100840008AE591E00E94A80161E087E00E948700AC
:10085000209709F4B5CF0E940000B2CF0E94F602A3
:1008600081E791E00E94A80160E0EFCFE3E9F1E0C9
:100870001382128284E091E0918380838DE08483EF
:100880008FEF85838CE086838BE087838AE0808787
:1008900089E0818788E0828713861486158616860C
:1008A000178661E080E10C945102052E97FB1EF43F
:1008B00000940E946C0457FD07D00E94740407FC4A
:1008C00003D04EF40C946C045095409530952195CE
:1008D0003F4F4F4F5F4F089590958095709561956C
:1008E0007F4F8F4F9F4F0895A1E21A2EAA1BBB1B6B
:1008F000FD010DC0AA1FBB1FEE1FFF1FA217B307EC
:10090000E407F50720F0A21BB30BE40BF50B661F01
:10091000771F881F991F1A9469F7609570958095C5
:1009200090959B01AC01BD01CF010895A29FB0013C
:10093000B39FC001A39F700D811D1124911DB29F13
:10094000700D811D1124911D08950E949604B7FF1A
:100950000895821B930B0895EE0FFF1F0590F491ED
:10096000E02D0994F894FFCF000000000403290152
:1009700057015601202054484520425249474854C7
:10098000204C494748542020202000534D415254C8
:1009900020504C414E54205741544552494E472017
:1009A000202020202020202020202020004D4F49E2
:1009B000535445523A20002520202020202020207A
:1009C00020004D4F544F523A204F4E2020202020DF
:1009D0002020202020202020004D4F544F523A202C
:1009E0004F4646202020202020202020202020208C
:0209F000000005
:107E0000112484B714BE81FFF0D085E080938100F7
:107E100082E08093C00088E18093C10086E0809377
:107E2000C20080E18093C4008EE0C9D0259A86E02C
:107E300020E33CEF91E0309385002093840096BBD3
:107E4000B09BFECF1D9AA8958150A9F7CC24DD24C4
:107E500088248394B5E0AB2EA1E19A2EF3E0BF2EE7
:107E6000A2D0813461F49FD0082FAFD0023811F036
:107E7000013811F484E001C083E08DD089C08234E0
:107E800011F484E103C0853419F485E0A6D080C0E4
:107E9000853579F488D0E82EFF2485D0082F10E0AE
:107EA000102F00270E291F29000F111F8ED06801E7
:107EB0006FC0863521F484E090D080E0DECF843638
:107EC00009F040C070D06FD0082F6DD080E0C81688
:107ED00080E7D80618F4F601B7BEE895C0E0D1E017
:107EE00062D089930C17E1F7F0E0CF16F0E7DF06D8
:107EF00018F0F601B7BEE89568D007B600FCFDCFD4
:107F0000A601A0E0B1E02C9130E011968C91119780
:107F100090E0982F8827822B932B1296FA010C0160
:107F200087BEE89511244E5F5F4FF1E0A038BF0790
:107F300051F7F601A7BEE89507B600FCFDCF97BE46
:107F4000E89526C08437B1F42ED02DD0F82E2BD052
:107F50003CD0F601EF2C8F010F5F1F4F84911BD097
:107F6000EA94F801C1F70894C11CD11CFA94CF0C13
:107F7000D11C0EC0853739F428D08EE10CD085E9AC
:107F80000AD08FE07ACF813511F488E018D01DD067
:107F900080E101D065CF982F8091C00085FFFCCF94
:107FA0009093C60008958091C00087FFFCCF809118
:107FB000C00084FD01C0A8958091C6000895E0E648
:107FC000F0E098E1908380830895EDDF803219F02E
:107FD00088E0F5DFFFCF84E1DECF1F93182FE3DFCA
:107FE0001150E9F7F2DF1F91089580E0E8DFEE27F6
:047FF000FF270994CA
:027FFE00040479
:00000001FF
